:020000040800F2
:10000000884C002001010008415600084B560008AA
:10001000555600085F5600086956000800000000A9
:1000200000000000000000000000000073560008FF
:100030007D560008000000008756000819010008DE
:100040001B0100081B0100081B010008A156000845
:100050001B0100081B0100081B0100081B01000810
:100060001B0100081B010008035700081B010008C2
:100070001B0100081B0100081B0100081B010008F0
:100080001B0100081B0100081B010008995600080D
:10009000915600081B0100081B01000821570008A9
:1000A0001B0100081B0100081B0100081B010008C0
:1000B0001B010008A3C000081B0100081B01000869
:1000C0001B0100081B0100081B0100081B010008A0
:1000D0001B010008C35600081B0100081B01000893
:1000E000755700081B0100081B010008DFF80CD041
:1000F0000DF070FE0048004739540008884C00207D
:100100000648804706480047FEE7FEE7FEE7FEE7B1
:10011000FEE7FEE7FEE7FEE7FEE7FEE70302000874
:10012000ED0000080CB50020019000906C480068BC
:1001300040F480306A49086000BF6948006800F4F4
:10014000003000900198401C0190009818B9019867
:10015000B0F5A06FF1D16248006800F4003010B132
:100160000120009001E0002000900098012843D178
:100170005C48006840F010005A4908600846006872
:1001800020F0030008600846006840F001000860A5
:1001900053484068524948600846406848600846ED
:1001A000406840F4806048600846406820F47C1055
:1001B00048600846406840F4881048600846006877
:1001C00040F08070086000BF4548006800F0007093
:1001D0000028F9D04248406820F0030040494860B8
:1001E0000846406840F00200486000BF3C48406854
:1001F00000F00C000828F9D10CBD10B5FFF792FFF4
:1002000010BD10B53648006840F001003449086060
:10021000084640683449084031494860084600684B
:10022000324908402E4908600846006820F48020C2
:1002300008600846406820F4FE0048604FF41F0044
:100240008860FFF7DAFF4FF000602949086010BDB1
:1002500010B5002100200022214B5B6803F00C0147
:1002600021B1042906D0082928D107E0214B224CCE
:10027000236027E01F4B204C236023E0184B5B6872
:1002800003F47010164B5B6803F48032022303EB17
:10029000904022B9194B4343174C23600DE0104B9B
:1002A0005B6803F4003323B1144B4343124C2360C7
:1002B00003E0104B4343104C236003E00D4B0E4C06
:1002C000236000BF00BF064B5B68C3F303130C4CF5
:1002D000E15C094B1B68CB40074C236010BD00005C
:1002E00000100240002002400000FFF8FFFFF6FE71
:1002F00008ED00E000127A000000002000093D0037
:100300000400002031490143314A1160704770B543
:10031000002100230F22C47804B32D4C246804F478
:10032000E064C4F5E064210AC1F10403CA404478E2
:1003300004FA03F18478144021430901254C06781E
:10034000A155047804F01F050124AC4005786D1117
:10035000AD0005F1E025C5F8004109E0047804F09E
:100360001F050124AC401C4D0678761145F8264047
:1003700070BD1A4A0A400243154B1B1F1A60704792
:1003800039B1134A121D12680243114B1B1D1A602A
:1003900006E00F4A121D126882430D4B1B1D1A60A6
:1003A0007047042808D14FF0E021096941F00401A9
:1003B0004FF0E022116107E04FF0E021096921F0E0
:1003C00004014FF0E0221161704700000000FA05BF
:1003D0000CED00E000E400E080E100E080FFFF1FA2
:1003E00010B50446FA48844208D10121401500F0B6
:1003F000F5FF0021601500F0F1FF17E0F548844299
:1004000008D10121001500F0E9FF0021201500F0BE
:10041000E5FF0BE0F048844208D10121C80300F059
:10042000DDFF00214FF4004000F0D8FF10BD30B5D3
:100430000246002000235068E84C20400D790C68EB
:1004400044EA0524204350609068E54C2040D1E9FF
:1004500002542C434D7944EA450420439060D06A0D
:1004600020F470000C7C641EE4B2234340EA035085
:10047000D06230BD00210160017141718160C160B5
:1004800001210174704721B1826842F0010282604B
:1004900003E0826822F001028260704721B1826825
:1004A00042F48072826003E0826822F4807282608B
:1004B000704710B50023CBB21AB144681C434460A6
:1004C00002E044689C43446010BD816841F008012B
:1004D00081607047014600208A6802F008020AB174
:1004E000012000E000207047816841F00401816034
:1004F0007047014600208A6802F004020AB1012018
:1005000000E00020704721B1826842F4A0028260BE
:1005100003E0826822F4A002826070470146002056
:100520008A6802F480020AB1012000E000207047CE
:1005300010B50A4600210023416821F46041531E92
:1005400041EA4331416010BD21B1426842F400628A
:10055000426003E0426822F4006242607047F0B5F6
:1005600004460D4600200021092D11DDE068A5F1AB
:100570000A0606EB4607072606FA07F18843A5F1A7
:100580000A0606EB460603FA06F10843E0600CE0B3
:10059000206905EB4507072606FA07F1884305EBB6
:1005A000450603FA06F108432061072A0FDA606B5B
:1005B000561E06EB86071F2606FA07F18843561ECD
:1005C00006EB860605FA06F10843606322E00D2A71
:1005D0000FDA206BD61F06EB86071F2606FA07F1F7
:1005E0008843D61F06EB860605FA06F1084320630A
:1005F00010E0E06AA2F10D0606EB86071F2606FA58
:1006000007F18843A2F10D0606EB860605FA06F10E
:100610000843E062F0BD21B1826842F4801282603A
:1006200003E0826822F48012826070470146C86C41
:1006300080B2704766484C300068704721B142680C
:1006400042F48062426003E0426822F480624260C9
:10065000704721B1426842F48052426003E0426830
:1006600022F48052426070470A460021816821F4DA
:10067000E04111438160704721B1826842F4004239
:10068000826003E0826822F400428260704721B1F8
:10069000826842F40212826003E0826822F402124D
:1006A00082607047014600208A6802F400120AB195
:1006B000012000E000207047F0B5044615460020F8
:1006C00000220026092911DDE068A1F10A0707EBE5
:1006D000470C072707FA0CF29043A1F10A0707EB32
:1006E000470703FA07F21043E0600CE0206901EBD2
:1006F000410C072707FA0CF2904301EB410703FA7C
:1007000007F210432061A06BC0F30156EF1C06F105
:10071000010CA7EB0C0707EB870C1F2707FA0CF25D
:100720009043EF1C06F1010CA7EB0C0707EB8707C2
:1007300001FA07F21043A063F0BD10B50A4600218C
:100740000023816B21F44011531E41EA0351816360
:1007500010BD08B5002300930090009B0B4400934C
:10076000009B1A6008BD08B5024600200090009268
:1007700001F12800009B184400900098006880B2A6
:1007800008BD0A4600214168164B194011434160DB
:1007900070474162826270470A460021416821F039
:1007A0001F0111434160704740B109490831096890
:1007B00041F40001064A0832116007E0044908319B
:1007C000096821F40001024A0832116070470000F4
:1007D0000024014000280140003C0140FFFEF0FFE2
:1007E000FDF7F1FFFFFD3FFF0246002013680B40BD
:1007F0000BB1012000E000207047CA43026070473F
:1008000070B502460020002300240B125568CEB2BA
:1008100005EA060415681D4015B10CB1012000E081
:10082000002070BD00220A12D3430360704700000D
:1008300010B5012000F0ECFD002000F0E9FD10BD36
:100840002A49086070472949091F086070472749ED
:1008500084310860704701460020254A10884FF611
:100860007F4210400843224A108070470146002012
:100870001F4A10884FF68072104008431C4A1080AF
:10088000704708B500220092194A2C3A0092009A4B
:1008900002440092009A116008BD08B5014600208C
:1008A000009013482C38009000980844009000985D
:1008B000008808BD0D489C300068C0B270470C48E5
:1008C0000830008840F0010009490831088070476D
:1008D0000648A0300068C0B270470548083000885C
:1008E00040F00200024908310880704704860D423A
:1008F0002C6C004001684FF6FE721140016000212F
:10090000016041608160C1608D49884208D18C4995
:100910000839496841F00F01894A083A51608AE074
:1009200087491431884208D185490839496841F01E
:10093000F001834A083A51607DE0814928318842BC
:1009400008D17F490839496841F470617C4A083A06
:10095000516070E07A493C31884208D178490839C1
:10096000496841F47041764A083A516063E074493D
:100970005031884208D172490839496841F47021E0
:100980006F4A083A516056E06D496431884208D197
:100990006B490839496841F47001694A083A516065
:1009A00049E067497831884208D165490839496882
:1009B00041F07061624A083A51603CE06149884206
:1009C00006D1011F096841F00F01021F116032E0DA
:1009D0005C491431884208D15A49091F096841F01D
:1009E000F001584A121F116025E05649283188420B
:1009F00008D15449091F096841F47061514A121F16
:100A0000116018E04F493C31884208D14D49091F17
:100A1000096841F470414B4A121F11600BE04949CB
:100A20005031884207D14749091F096841F47021B4
:100A3000444A121F1160704710B50022026847F641
:100A4000F0739A430C6A8B6823430C6923434C6907
:100A500023438C692343CC6923434C6A23438C6A28
:100A600023431A430260CB6843600B6883604B6882
:100A7000C36010BD0021016041608160C1600161FF
:100A800041618161C161016241628162704721B14E
:100A9000026842F00102026004E002684FF6FE7351
:100AA0001A40026070471AB103680B43036002E00A
:100AB00003688B4303607047416070470146486894
:100AC00080B2704701460020002201F080531BB124
:100AD0001C4B083B1A6802E0194B083B1A6802EAF3
:100AE00001030BB1012000E00020704700F08051AD
:100AF00019B11449091F086002E01149083948601A
:100B0000704701460020002201F080531BB10D4BBD
:100B1000083B1A6802E00A4B083B1A6802EA010324
:100B20000BB1012000E00020704700F0805119B1A6
:100B30000449091F086002E001490839486070470C
:100B40000800024008040240002044490860091DD2
:100B50000860091D0860091D086041483F491431BB
:100B60000860704700213D498279002A3AD00A4640
:100B7000126803689A430B461A600A1D12680368DC
:100B80009A430B1D1A60027911440A6803681A43DC
:100B90000A60324A0832126803689A432F4B0833BE
:100BA0001A601A1D126803689A432C4B0C331A60A2
:100BB0004279102A0ED11A1F126803681A43274B74
:100BC00008331A601A1D126803681A43234B0C334A
:100BD0001A600DE02149427911440A6803681A43FA
:100BE0000A6005E0027911440A6803689A430A60C2
:100BF00070470021016001710C2141710021817158
:100C000070471649103109680143144A10321160C7
:100C1000704701460020114A143212680A400AB196
:100C2000012000E0002070470C4914310860704733
:100C3000014600200022094B1B6803EA0102074B12
:100C400014331B680B4013B10AB1012000E00020EF
:100C500070470249143108607047000000040140E9
:100C6000FFFF0F0010B50446CC48844208D1012193
:100C7000042000F0B3FB0021042000F0AFFB46E0AD
:100C8000C748844208D10121082000F0A7FB0021B9
:100C9000082000F0A3FB3AE0C248844208D10121B9
:100CA000102000F09BFB0021102000F097FB2EE0AD
:100CB000BD48844208D10121202000F08FFB002193
:100CC000202000F08BFB22E0B848844208D10121AB
:100CD000402000F083FB0021402000F07FFB16E065
:100CE000B348844208D10121802000F077FB002125
:100CF000802000F073FB0AE0AE48844207D1012156
:100D0000801500F06BFB0021A01500F067FB10BD03
:100D100010B50121084600F061FB0021012000F020
:100D20005DFB10BD2DE9F0410246002500260020A4
:100D300000230024002791F803C00CF00F0591F860
:100D400003C00CF0100CBCF1000F03D091F802C0EE
:100D50004CEA050591F800C0BCF1000F31D01468D1
:100D600000202BE04FF0010C0CFA00F3B1F800C0AA
:100D70000CEA03069E4220D183004FF00F0C0CFAC0
:100D800003F7BC4305FA03FC4CEA040491F803C0E2
:100D9000BCF1280F06D14FF0010C0CFA00FCC2F890
:100DA00014C00AE091F803C0BCF1480F05D14FF020
:100DB000010C0CFA00FCC2F810C0401C0828D1D36A
:100DC0001460B1F800C0BCF1FF0F34DD546800209E
:100DD0002EE000F1080C4FF0010808FA0CF3B1F80E
:100DE00000C00CEA03069E4221D183004FF00F0C95
:100DF0000CFA03F7BC4305FA03FC4CEA040491F82F
:100E000003C0BCF1280F05D100F1080C08FA0CF85A
:100E1000C2F8148091F803C0BCF1480F07D100F16B
:100E2000080C4FF0010808FA0CF8C2F81080401CBA
:100E30000828CED35460BDE8F0814FF6FF710180E1
:100E4000022181700421C17070470246002093681E
:100E50000B400BB1012000E000207047014688687C
:100E600080B2704702460020D3680B400BB10120CE
:100E700000E0002070470146C86880B270470161F9
:100E80007047416170470AB1016100E041617047FC
:100E9000C16070474FF480320A4382618161826190
:100EA00082698269704702460020434B18684FF6FA
:100EB0008073184040EA021008433F4B18607047A7
:100EC0003E49C8617047F0B50A460023002400215E
:100ED000002500F00046B6F1004F02D1364EF16910
:100EE00001E0354E7168C0F3034583B200F440164B
:100EF000B6F5401F08D121F070612F4E766826F0BC
:100F000070662D4F7E6012E000F48016B6F5801FEB
:100F100006D1032606FA05F4A14341F0706106E00C
:100F2000460D360103FA06F6B14341F0706122B175
:100F3000460D360103FA06F6314300F00046B6F1DD
:100F4000004F02D11C4EF16101E01B4E7160F0BDFB
:100F500030B500228B071C0F0F2303FA04F2164B47
:100F600008338C1053F824309343134C08348D10FD
:100F700044F8253023468C1053F824308C07240F76
:100F800000FA04F423430C4C08348D1044F8253047
:100F900030BD0A49DC31086070470000000801409C
:100FA000000C0140001001400014014000180140F5
:100FB000001C0140002001400000014000002042D0
:100FC0000E49086070470D49486070470B498860BA
:100FD00070474AF6AA200949086070474CF6CC4091
:100FE00006490860704701460020044AD2680A405A
:100FF0000AB1012000E000207047000000300040EE
:1010000010B50121080700F0F6F900214FF08050DB
:1010100000F0F1F910BD2A490862704728490861BB
:10102000704701460020274A106820F0E00008437E
:10103000106070472249A0310860704710B5024621
:101040000020204B186820F00300104318601E4B4E
:101050001B6843F004031C4C2360012901D130BFFD
:1010600000E020BF184B1B6823F00403164C2360DC
:1010700010BD1448006840F004001249086008469A
:10108000006840F0020008600F48006840F004006B
:101090000D49086000BF00BF30BF70470146002007
:1010A000084A52680A400AB1012000E00020704757
:1010B0000449096841EA8001024A11607047000052
:1010C00000000E420070004010ED00E0DF480068B4
:1010D00040F00100DD49086008464068DC490840EE
:1010E000DA49486008460068DA490840D74908608C
:1010F0000846006820F4802008600846406820F414
:10110000FE0048604FF41F0088607047CF490968AF
:1011100021F48031CD4A11601146096821F4802103
:101120001160B0F5803F03D0B0F5802F0ED106E0FE
:10113000C649096841F48031C44A116007E0C349D7
:10114000096841F4A021C14A116000E000BF00BF5E
:10115000704710B501460022002300204A11012AE1
:1011600002D1BA4C236806E0022A02D1B74C236AA6
:1011700001E0B64C636A01F01F02012494401C4058
:101180000CB1012000E0002010BD38B50020009017
:101190000024002500BF3120FFF7DBFF0546009843
:1011A000401C00900098B0F5A06F01D0002DF2D047
:1011B0003120FFF7CEFF08B1012400E000242046D3
:1011C00038BD01460020A14A106820F0F80040EA2E
:1011D000C10010607047A0490860704702460020B7
:1011E0009A4B586820F47C1042EA01031843974B4D
:1011F0005860704798490866704701460020934A36
:10120000506820F003000843506070478F484068E2
:1012100000F00C007047014600208C4A506820F016
:10122000F00008435060704701460020874A50682C
:1012300020F4E06008435060704701460020834A74
:10124000506820F4605040EAC1005060704729B1F6
:101250007E4A527A02437D4B5A7204E07B4A527AAC
:1012600082437A4B5A7270477B49D8310860704785
:1012700001460020754A506820F440400843506001
:1012800070470021714A20321170704A82F8201094
:10129000012802D004280AD104E001216B4A20323F
:1012A000117005E00521694A2032117000E000BF8D
:1012B00000BF70476949086070476449096A014383
:1012C000624A11627047654944390860704730B519
:1012D00000210022002400235C4D6D6805F00C0104
:1012E00021B1042905D0082923D105E05C4D056012
:1012F00022E05B4D05601FE0544D6D6805F47012EF
:10130000524D6D6805F48034022505EB92421CB9FC
:10131000544D554305600BE04C4D6D6805F40035A8
:101320001DB1504D5543056002E04D4D55430560DC
:1013300002E04B4D056000BF00BF444D6D6805F0F5
:10134000F0010909484D6B5C0568DD4045603F4D83
:101350006D6805F4E061090A434D6B5C4568DD404A
:1013600085603A4D6D6805F46051C90A3E4D6B5C6D
:101370004568DD40C560354D6D6805F44041890B19
:101380003A4D6B5CC568B5FBF3F5056130BD29B11D
:101390002E4A526902432D4B5A6104E02B4A52698E
:1013A00082432A4B5A61704729B1284A9269024305
:1013B000264B9A6104E0254A92698243234B9A6145
:1013C000704729B1214AD2690243204BDA6104E017
:1013D0001E4AD26982431D4BDA61704729B11B4A0C
:1013E000D2680243194BDA6004E0184AD26882439B
:1013F000164BDA60704729B1144A12690243134B45
:101400001A6104E0114A12698243104B1A61704755
:1014100012494039086070470F49C86470470B494A
:10142000C87170470948406A40F0807007494862B7
:10143000704701460020054A92680A400AB101201F
:1014400000E0002070470149887270470010024098
:101450000000FFF8FFFFF6FE000042428004424217
:1014600000127A0000093D00140000202400002032
:1014700029B1504A128802434E4B1A8004E04D4A6B
:10148000128882434B4B1A8070474A48001D0088DF
:1014900040F010004749091D088070474548001D6D
:1014A00000884FF6EF7108404249091D08807047D7
:1014B000002140481C300188001F008841EA00409C
:1014C000704700B50246FFF7E0FF100C39491831AC
:1014D0000880091D0A80FFF7E1FF00BD00B5024644
:1014E000FFF7D3FFC2F30340324908310880091DDA
:1014F0000A80FFF7D3FF00BD00B50246FFF7C5FF26
:10150000100C2C4920310880091D0A80FFF7C6FF06
:1015100000BD00202749103109880907080B25491B
:10152000143109880843704700BF2248001D008815
:1015300000F020000028F8D070471E48001D0088E9
:101540004FF6F77108401B49091D088000BF194874
:10155000001D008800F008000028F8D07047014600
:101560000020144A121D12880A400AB1012000E02E
:10157000002070470F49091D098881430D4A121D3B
:1015800011807047014600200A4A121D12880A4045
:10159000D0B2084A12880A4012B108B1012000E016
:1015A000002070470349091D09888143014A121D23
:1015B000118070470028004010B50446BE488442A0
:1015C00008D101218014FFF709FF0021A014FFF7C3
:1015D00005FF16E0B948844208D101210014FFF745
:1015E0000AFF00212014FFF706FF0AE0B4488442F6
:1015F00007D10121C013FFF7FEFE0021E013FFF722
:10160000FAFE10BD10B50022028802F441520B8888
:101610004C8823438C882343CC8823430C89234361
:101620004C8923438C892343CC8923431A4302806A
:10163000838B4FF2FF74234083830B8A038210BD98
:101640002DE9F04F85B005460C464FF00009022702
:101650004FF000084FF0010B0026B246A88B4FF266
:1016600040010840A88302202884B5F81C90A06897
:10167000022801D100BF38E0A08810B94FF0010B5B
:1016800001E04FF0020B8D48854200D100E000BF21
:101690006846FFF71CFEDDF800A0E088B0F5007F8B
:1016A0000AD14FEA1A2000EB80004000A168B0FB8D
:1016B000F1F0401D86B20BE04FEA4B10BAFBF0F0A0
:1016C00000EB80004000A168B0FBF1F0401D86B245
:1016D0000A20B6FBF0F606F00108A6EB0800C0F3FE
:1016E0004F074FF6FF7000EA0828022F01DBFF2F9B
:1016F00002DD02274FF00008E08840EA0800384386
:101700002884A088A1890843618808432188084368
:1017100040F4006040EA0909A5F81C9005B0BDE856
:10172000F08F0021018041808180C1800181418151
:101730008181C181072101827047002101804180A0
:101740008180C1800221816000218181704721B1A7
:10175000028842F04002028004E002884FF6BF7324
:101760001A400280704721B1828B42F480628283EA
:1017700004E0828B4FF6FF331A408283704730B506
:10178000002400230C110125A540ABB21AB18588B5
:101790001D43858002E085889D43858030BD1AB158
:1017A00083880B43838002E083888B438380704768
:1017B000818170470146888970474FF6FF629142E8
:1017C00004D0028842F48072028004E002884FF65E
:1017D000FF631A400280704721B1828842F0040200
:1017E000828004E082884FF6FB731A408280704743
:1017F00002884FF2FF731A40028002880A43028077
:101800007047018841F480510180704721B10288FE
:1018100042F40052028004E002884DF6FF731A4041
:101820000280704702460020012901D0108B00E0A1
:10183000908A70470146088A7047B1F5804F04D1FD
:10184000028842F48042028004E002884BF6FF7373
:101850001A40028070470246002013890B400BB1EA
:10186000012000E000207047CA4302817047F0B5B4
:101870000246002000240023002501F00F07012666
:10188000BE40B4B20B1101269E40B3B2968806EA60
:1018900003051689264016B10DB1012000E0002095
:1018A000F0BD10B5002201F00F040123A3409AB24D
:1018B000D343038110BD00000030014000380040D8
:1018C000003C004010B50446FE48844208D1012186
:1018D000C014FFF783FD0021E014FFF77FFDC4E093
:1018E000B4F1804F08D101210846FFF784FD0021A3
:1018F0000120FFF780FDB8E0F348844208D10121C0
:101900000220FFF778FD00210220FFF774FDACE014
:10191000EE48844208D101210420FFF76CFD00212C
:101920000420FFF768FDA0E0E948844208D10121C6
:101930000820FFF760FD00210820FFF75CFD94E020
:10194000E448844208D101211020FFF754FD002112
:101950001020FFF750FD88E0DF48844208D10121C4
:101960002020FFF748FD00212020FFF744FD7CE008
:10197000DA48844208D101214014FFF72FFD0021ED
:101980006014FFF72BFD70E0D548844209D1012196
:10199000C804FFF723FD00214FF40020FFF71EFDD0
:1019A00063E0D048844209D101210805FFF716FD04
:1019B00000214FF48010FFF711FD56E0CA48844221
:1019C00009D101214805FFF709FD00214FF400105E
:1019D000FFF704FD49E0C548844208D101214020B9
:1019E000FFF709FD00214020FFF705FD3DE0C0485D
:1019F000844208D101218020FFF7FDFC00218020D6
:101A0000FFF7F9FC31E0BB48844208D10121801581
:101A1000FFF7F1FC0021A015FFF7EDFC25E0B6482B
:101A2000844209D101210804FFF7D8FC00214FF4BA
:101A30008030FFF7D3FC18E0B048844209D101217F
:101A40004804FFF7CBFC00214FF40030FFF7C6FC41
:101A50000BE0AB48844208D101218804FFF7BEFCAB
:101A600000214FF48020FFF7B9FC10BD002202884E
:101A7000944B98420ED0994B98420BD0B0F1804FC6
:101A800008D0914B984205D0904B984202D0904B91
:101A9000984204D14FF68F731A404B881A438D4BEE
:101AA000984207D08C4B984204D04FF6FF431A401F
:101AB000CB881A4302808B8883850B880385814BF2
:101AC00098420BD0854B984208D08B4B984205D05A
:101AD0008A4B984202D08A4B984201D10B7A0386F6
:101AE00001238382704770B5002400220023058CF7
:101AF0004FF6FE7635400584028C8388048B4FF6C2
:101B00008F752C40B51E2C400D882C43751E2A4025
:101B10000D892A434D882A436A4DA8420BD06F4D48
:101B2000A84208D0744DA84205D0744DA84202D0F6
:101B3000734DA84213D14FF6F7752A404D892A43B9
:101B40004FF6FB752A408D882A434FF6FF652B40E0
:101B50004FF6FF552B408D892B43CD892B43838036
:101B60000483CD888586028470BD70B50024002270
:101B70000023058C4FF6EF7635400584028C838870
:101B8000048B48F6FF752C404FF6FF452C400D881E
:101B90004FF6FF7606EA05252C434FF6DF752A40FF
:101BA0000D8906EA05152A434D8806EA05152A43DC
:101BB000444DA84202D0494DA8421DD14FF67F7531
:101BC0002A404D894FF6FF7606EA05152A434FF65F
:101BD000BF752A408D8806EA05152A434FF6FF3562
:101BE0002B404FF2FF752B408D8906EA85052B436C
:101BF000CD8906EA85052B4383800483CD8805873C
:101C0000028470BD70B5002400220023058C4FF6BD
:101C1000FF6635400584028C8388848B4FF68F7570
:101C20002C404FF6FC752C400D882C434FF6FF5589
:101C30002A400D894FF6FF7606EA05252A434D888E
:101C400006EA05252A431F4DA84202D0234DA8428B
:101C50001DD14FF2FF752A404D894FF6FF7606EAF7
:101C600005252A434FF6FF352A408D8806EA0525CB
:101C70002A434EF6FF752B404DF6FF752B408D899C
:101C800006EA05152B43CD8906EA05152B4383800B
:101C90008483CD888587028470BD70B500220023BF
:101CA0000024058C4EF6FF7635400584038C84882D
:101CB000828B48F6FF752A404FF6FF452A400D8873
:101CC00020E00000002C014000040040000800401B
:101CD000000C00400010004000140040003401409F
:101CE000004C0140005001400054014000180040E9
:101CF000001C004000200040004001400044014022
:101D0000004801404FF6FF7606EA05252A434DF6C6
:101D1000FF752B400D8906EA05352B434D8806EAF1
:101D200005352B43FA4DA84202D0FA4DA84208D1FE
:101D30004BF6FF752C408D894FF6FF7606EA851528
:101D40002C4384808283CD88A0F84050038470BDEA
:101D5000828B4FF2FF331A408283828B4FF6FF73E0
:101D600003EA01231A4382837047F0B50C461546F7
:101D7000002200210026078C4EF6FF7C07EA0C07A4
:101D80000784828B018C4FF6FF7707EA043640F612
:101D9000FF473A404FF6FF7707EA05273A434FF6E9
:101DA000FF7707EA03373A43D94FB8420ED0D94FED
:101DB000B8420BD0B0F1804F08D0D74FB84205D011
:101DC000D64FB84202D0D64FB84206D14DF6FF7773
:101DD000394046F48057394305E047F6FF5739400C
:101DE00044F48057394382830184F0BD828B4FF6DF
:101DF000F3731A408283828B0A4382837047F0B563
:101E00000C461546002200210026078C4FF6FF6C79
:101E100007EA0C070784828B018C4FF6FF7707EAED
:101E200004264FF60C773A404FF6FF7707EA031780
:101E30002F433A43B64FB8420ED0B64FB8420BD0FC
:101E4000B0F1804F08D0B44FB84205D0B34FB8427C
:101E500002D0B34FB84206D14FF6FF57394046F48F
:101E60008077394305E04FF2FF57394044F48077DB
:101E7000394382830184F0BD028B4FF2FF331A4055
:101E80000283028B4FF6FF7303EA01231A43028396
:101E90007047F0B50C461546002200210026078C3D
:101EA0004FF6EF7C07EA0C070784028B018C4FF694
:101EB000FF7707EA041640F6FF473A404FF6FF77F0
:101EC00007EA03373A434FF6FF7707EA05273A4315
:101ED0008F4FB8420ED08F4FB8420BD0B0F1804F29
:101EE00008D08D4FB84205D08C4FB84202D08C4FED
:101EF000B84206D14FF6DF77394046F01007394334
:101F000005E04FF65F77394044F01007394302830C
:101F10000184F0BD028B4FF6F3731A400283028BEB
:101F20000A4302837047F0B50C4615460022002193
:101F3000068C4FF6FE773E400684028B018C4FF6EE
:101F40000C7632407E1C06EA03162E433243704E56
:101F5000B0420ED06F4EB0420BD0B0F1804F08D0DF
:101F60006D4EB04205D06D4EB04202D06C4EB042C4
:101F700006D14FF6FD76314044F00106314305E0CD
:101F80004FF6F576314044F0010631430283018477
:101F9000F0BD70B505460C465D4885420ED05D48E3
:101FA00085420BD0B5F1804F08D05B48854205D003
:101FB0005A48854202D05A48854200D100E000BF0D
:101FC000208850B92389A28861882846FFF7ABFF93
:101FD000E1882846FFF79EFF25E0208804280AD1E3
:101FE0002389A28861882846FFF753FFE1882846A5
:101FF000FFF742FF17E0208808280AD12389A2882A
:1020000061882846FFF7FBFEE1882846FFF7EEFED1
:1020100009E02389A28861882846FFF7A6FEE188A7
:102020002846FFF795FE70BD2DE9F04105460C46A8
:1020300000260127608808B9022600E00026A08853
:10204000012801D1022700E001272088A0B92389B7
:10205000A28861882846FFF766FFE1882846FFF7D7
:1020600059FF23893A4631462846FFF712FFE18897
:102070002846FFF701FF13E02389A28861882846DC
:10208000FFF707FFE1882846FFF7F6FE23893A4667
:1020900031462846FFF747FFE1882846FFF73AFF19
:1020A000BDE8F0810A884B881A438B881A43CB8895
:1020B0001A430B891A434B891A438B891A43A0F898
:1020C000442070474FF6FF71818000210180C1805C
:1020D0004180017270470021018041808180C18070
:1020E000018141818181C18170470021018041804E
:1020F000012181800021C180018170470021018080
:1021000041808180C18001814181818170470000CF
:10211000002C014000340140000400400008004051
:10212000000C004021B1028842F00102028004E06C
:1021300002884FF6FE731A400280704731B1B0F842
:10214000442042F40042A0F8442005E0B0F84420C6
:10215000C2F30E02A0F8442070471AB183890B43E2
:10216000838102E083898B4383817047818270473A
:1021700041EA0203A0F8483070471AB183890B4343
:10218000838102E083898B438381704701894FF605
:10219000F8721140018170470A46002101894FF60B
:1021A0008F73194011430181704730B504460D46C5
:1021B00029462046FFF7F0FF208940F007002081E4
:1021C00030BD2DE9F04104460D4616461F46602DF0
:1021D00006D13B46012231462046FFF75AFE05E074
:1021E0003B46012231462046FFF79DFE2946204608
:1021F000FFF7D2FF208940F007002081BDE8F08181
:1022000030B50C4600210189C9B24FF6FF7505EAC9
:102210000325154325432943018130BD2DE9F041B4
:1022200005460E4617469846002443463A46314630
:102230002846FFF7E5FF2C894FF6F870044044F07C
:1022400007044FF68F70044044F070042C81BDE801
:10225000F081F0B504460D4616461F463B46324611
:1022600029462046FFF7CCFF208940F4804020819A
:10227000F0BD0185828270470A46002101884FF631
:102280008F731940114301807047F0B50C46154615
:102290001E460021002200230189028B038C4FF689
:1022A000F877394021434FF6FC473A4040F2011796
:1022B0003A434FF6DD773B404FF6FF7707EA0617C4
:1022C0002F433B43018102830384F0BD0A46002172
:1022D000018B4FF68F7319401143018370470A46F3
:1022E0000021018B48F6FF7319404FF6FF7303EA94
:1022F00002231943018370470A460021818B4FF660
:102300008F7319401143818370470A460021818BE6
:1023100048F6FF7319404FF6FF7303EA022319438F
:102320008183704721B1028842F08002028004E07C
:1023300002884FF67F731A400280704721B182886D
:1023400042F00402828004E082884FF6FB731A4058
:102350008280704721B1828842F00802828004E0C6
:1023600082884FF6F7731A408280704721B18288C5
:1023700042F00102828004E082884FF6FE731A4028
:10238000828070470A460021018B4FF6F77319408F
:102390001143018370470A460021018B4FF2FF73FE
:1023A00019404FF6FF7303EA022319430183704774
:1023B0000A460021818B4FF6F77319401143818340
:1023C00070470A460021818B4FF2FF7319404FF688
:1023D000FF7303EA02231943818370470A460021F1
:1023E000018B4FF6FB7319401143018370470A4676
:1023F0000021018B4FF6FF3319404FF6FF7303EABC
:1024000002231943018370470A460021818B4FF64E
:10241000FB7319401143818370470A460021818B69
:102420004FF6FF3319404FF6FF7303EA02231943B7
:10243000818370470A460021018B4FF67F73194054
:102440001143018370470A460021018BC1F30E013D
:102450004FF6FF7303EA02231943018370470A46CC
:102460000021818B4FF67F731940114381837047A0
:102470000A460021818BC1F30E014FF6FF7303EA78
:1024800002231943818370470A460021018C4FF6CD
:10249000FD7319401143018470470A460021018CE5
:1024A0004FF6F77319401143018470470A46002123
:1024B000018C4FF6DF7319404FF6FF7303EA0213E6
:1024C0001943018470470A460021018C4FF67F733F
:1024D00019404FF6FF7303EA021319430184704752
:1024E0000A460021018C4FF6FF5319404FF6FF7347
:1024F00003EA02231943018470470A460021018C34
:102500004FF2FF7319404FF6FF7303EA022319439A
:10251000018470470A460021018C4DF6FF73194073
:102520004FF6FF7303EA023319430184704730B555
:10253000002301248C40A3B2048C9C430484048CAB
:1025400002FA01F5ADB22C43048430BD30B500234E
:1025500004248C40A3B2048C9C430484048C02FAAF
:1025600001F5ADB22C43048430BD70B503460020A4
:1025700000241846183001258D40ACB21D8CA543AF
:102580001D8409B1082909D100EB6100056825F017
:10259000700505600568154305600EE00D1FC5F365
:1025A0004E052844056825F4E045056005684FF6AA
:1025B000FF7606EA02263543056070BD21B1028828
:1025C00042F00202028004E002884FF6FD731A40D6
:1025D0000280704721B1028842F00402028004E0C8
:1025E00002884FF6FB731A400280704721B182883F
:1025F00042F08002828004E082884FF67F731A40A6
:102600008280704702884FF6F7731A400280028872
:102610000A430280704782884FF68F731A40828087
:1026200082880A438280704702894FF6F8731A4005
:10263000028102890A430281704702894FF67F7343
:102640001A40028102890A430281704781847047DF
:102650008185704781867047018770478187704701
:10266000A0F84010704702884FF6FF431A400280DE
:1026700002880A43028070470146888E70470146EF
:10268000088F70470146888F70470146B1F84000B7
:1026900070470146888C70470146088D7047024696
:1026A0000020138A0B400BB1012000E0002070478E
:1026B000CA430282704730B502460020002300243E
:1026C000158A05EA0103958905EA010413B10CB1E5
:1026D000012000E0002030BDCA43028270470000A4
:1026E00010B50446FB48844209D101218803FEF756
:1026F00075FE00214FF48040FEF770FE32E0F64890
:10270000844209D101214804FEF775FE00214FF4EF
:102710000030FEF770FE25E0F048844209D1012127
:102720008804FEF768FE00214FF48020FEF763FE68
:1027300018E0EB48844209D10121C804FEF75BFE92
:1027400000214FF40020FEF756FE0BE0E5488442DE
:1027500008D101210805FEF74EFE00214FF480103C
:10276000FEF749FE10BD2DE9F04786B005460E463E
:102770000024A24600BFA1460027B08900B100BFD7
:102780002F462C8A4CF6FF700440F08804432C82BC
:10279000AC894EF6F3100440B08831890843718942
:1027A00008430443AC81AC8A4FF6FF400440B08933
:1027B0000443AC8201A8FEF78AFDC648874202D1D5
:1027C000DDF810A001E0DDF80CA0A88900F40040BD
:1027D00040B10AEBCA0000EB0A1031684900B0FBB7
:1027E000F1F807E00AEBCA0000EB0A103168890033
:1027F000B0FBF1F86420B8FBF0F00401200964217B
:1028000001FB1089A88900F4004040B1322000EBA0
:10281000C900B0FBF1F000F00700044308E03220EB
:1028200000EB09106421B0FBF1F000F00F0004434D
:102830002C8106B0BDE8F0874FF4165101600021ED
:102840008180C18001810C214181002181817047FB
:1028500010B502460020108A4FF2FF0318400B8883
:102860004C8823438C882343CC882343184310820D
:1028700010BD0021018041808180C180704721B15D
:10288000828942F40052828104E082894DF6FF730E
:102890001A4082817047F0B50346002400260025C7
:1028A000002040F66A17B94200D100BF1846C1F3B4
:1028B000421401F01F06012707FA06F5012C01D189
:1028C0000C3004E0022C01D1103000E014301AB1B9
:1028D00007682F43076002E00768AF430760F0BD59
:1028E0001AB1838A0B43838202E0838A8B438382FB
:1028F0007047028A4FF6F0731A400282028A0A4336
:102900000282704782894FF2FF731A408281828966
:102910000A438281704721B1828942F0020282819A
:1029200004E082894FF6FD731A4082817047028A63
:102930004FF6DF731A400282028A0A43028270470E
:1029400021B1028A42F48042028204E0028A4BF6FC
:10295000FF731A4002827047C1F3080282807047F9
:1029600001468888C0F308007047818941F0010161
:1029700081817047028BD2B20283028B42EA01222C
:1029800002837047028B02F47F420283028B0A4368
:102990000283704721B1828A42F02002828204E0E1
:1029A000828A4FF6DF731A408282704721B1828A91
:1029B00042F01002828204E0828A4FF6EF731A40DE
:1029C0008282704721B1828A42F00802828204E04A
:1029D000828A4FF6F7731A408282704721B182894A
:1029E00042F40042828103E08289C2F30E028281B6
:1029F000704721B1828A42F40062828204E0828AB6
:102A00004FF2FF731A4082827047828A4FF6FB733F
:102A10001A408282828A0A438282704721B1828A66
:102A200042F00202828204E0828A4FF6FD731A406D
:102A30008282704702460020B1F5007F00D100BFBE
:102A400013880B400BB1012000E00020704701F417
:102A50000072B2F5007F00D100BFCA430280704708
:102A600070B50246002400230025002040F66A16B7
:102A7000B14200D100BFC1F3421501F01F0301268E
:102A800006FA03F3012D02D19689334006E0022DA8
:102A900002D1168A334001E0968A33400C12012697
:102AA00006FA04F41688344013B10CB1012000E09A
:102AB000002070BD10B50022002340F66A14A14228
:102AC00000D100BF0A1201249440A3B2DC43048069
:102AD00010BD0000003801400044004000480040A4
:102AE000004C00400050004010B504462CB90120B5
:102AF000F64909680882002010BDF5490968086890
:102B00008047F24800680A30F6E710B5EF480068E1
:102B1000C078F0494978884213DCEC480068807836
:102B200078B9EA480068808858B9E8480068C078F1
:102B3000E64909688872E6490968486880470020C4
:102B400010BD0220FCE710B504462CB90120DF4976
:102B500009680882002010BDDD490968886880473F
:102B6000DA4800680C30F6E710B5D84B1B68D97806
:102B7000D64B1B685879D84B1B689A699047044616
:102B8000D2480068807AE8B13CB9D0480068007942
:102B900018B9CE480068807808B1022010BD8CB901
:102BA000CB490968C8688047C84800684079C74968
:102BB0000968C872C5480068C078C44909680873C4
:102BC0000020EBE70220E9E710B504462CB902200B
:102BD000BE4909680882002010BD0020BF49088056
:102BE000BA480068007800F07F0018BBB749096850
:102BF000487A00F0200131B1B849097841F002016A
:102C0000B64A117005E0B549097801F0FD01B34AF3
:102C1000117000F0400131B1B049097841F0010173
:102C2000AE4A117005E0AD49097801F0FE01AB4AEA
:102C300011703AE0A5480068007800F07F00012894
:102C400001D1A648C8E7A1480068007800F07F00DD
:102C5000022828D19D4A1268517901F00F0001F035
:102C600080027AB19E4B03EB8002D2F8002C02F076
:102C70003002102A16D1994A127842F00102974B7D
:102C80001A700FE0964B03EB8002D2F8002C02F48E
:102C90004052B2F5805F05D1904A127842F00102AD
:102CA0008E4B1A7001E0002096E78949096808698F
:102CB00080478A4890E72DE9F0478448006800780B
:102CC00000F07F08B8F1000F0AD180480068407A10
:102CD00000F0DF007D49096848720020BDE8F087F8
:102CE000B8F1020F7ED179480068408818B977485A
:102CF0000068007908B10220F0E7DFF8D891734846
:102D00000068477927F080052C46704800684079B4
:102D100000F0800038B1724901EB8400D0F8000C5B
:102D200000F0300606E06E4901EB8400D0F8000C9C
:102D300000F4405699F80000A84204D91EB1634837
:102D40000068807A08B90220C8E707F0800080B1E7
:102D5000634901EB8400D0F8000C00F0300010282B
:102D60004BD1E0B201F01DF8E0B2302100F09FFE3F
:102D700043E05B4901EB8400D0F8000C00F44050C4
:102D8000B0F5805F39D1E4B9564A92F82C10E0B220
:102D900001F091F8524A02EB8401D1F8001C4BF685
:102DA0008F7201EA020080F4805080F4005040F4F9
:102DB000004141F080014A4B03EB8402C2F8001C41
:102DC0001BE0E0B200F0D5FF454A02EB8401D1F8E8
:102DD000001C4BF68F7201EA020080F4805080F4F0
:102DE000005000E00FE040F4004141F080013C4B16
:102DF00003EB8402C2F8001C00BF3549096848692A
:102E0000804700206AE700BF022067E72DE9F04114
:102E10002E480068467926F080073C462B4800681B
:102E2000407900F0800038B12D4901EB8400D0F8E2
:102E3000000C00F0300506E0294901EB8400D0F8D1
:102E4000000C00F4405523480078A04208D91F48E0
:102E50000068408820B91DB11C480068807A10B90C
:102E60000220BDE8F08106F08000A0B11C4A02EB10
:102E70008401D1F8001C48F6BF7201EA020080F01C
:102E8000100040F4004141F08001154B03EB840237
:102E9000C2F8001C14E0124A02EB8401D1F8001CB5
:102EA0004BF68F7201EA020080F4805040F400413A
:102EB00041F080010A4B03EB8402C2F8001C00BF02
:102EC00003490968886980470020CAE7300000206C
:102ED0003C00002060010020340000202800002079
:102EE000005000406401002010B5F7480068407AA7
:102EF00040F02000F44909684872F4490968C8693B
:102F00008047002010BD10B50246EF480068438A94
:102F100032B98888C01AEC4C24682082002010BD89
:102F200008681844FBE72DE9F041E748006800F124
:102F300010042688A068C0B1BEB1A588B54200D9EA
:102F40003546A8B2A168884707462088401B2080E4
:102F5000608828446080002000F07FFF8046AAB28D
:102F60004146384600F03EFD00BF208850B14FF486
:102F70004050D74908800021084600F07AFF3020F1
:102F8000D44908802088A188884204DB0320CE49E8
:102F90000968087218E02088002804DD0520CA4965
:102FA0000968087210E0208870B90620C6490968CF
:102FB00008720021C848006880B2801CC74A42F8E5
:102FC00010103020C3490880BDE8F0812DE9F0479A
:102FD000BD48006800F110052E88BB480068077ADC
:102FE000D6B9042F18D1BE48007801280FD100218E
:102FF000B948006880B2801CB84A42F810103020EE
:10300000B449088000BF0020B549087003E00727D5
:103010001020B049088027E0AC88A64201D80420DF
:1030200000E002200746B44200D93446A0B2A968A5
:1030300088478046002000F005FF8146A2B249463D
:10304000404600F0B5FCA1B2002000F012FF288835
:10305000001B288068882044688030209D490880B3
:1030600000029B49088000BF974909680F72BDE8BC
:10307000F08770B50226944800684478924800684A
:10308000007800F07F00002844D1092C03D1FFF71D
:103090003CFD06465FE0052C14D18B480068C078E3
:1030A0007F280BDC88480068807838B9864800683B
:1030B000808818B984480068807A08B1082565E0DE
:1030C000002648E0032C0ED17F480068C078012814
:1030D00007D17D480068808818B9FFF705FF0646CC
:1030E00039E0022637E0012C35D177480068C078F6
:1030F00001280DD174480068808848B9724800687A
:10310000407A00F0200018B1FFF7D5FD064622E016
:10311000022620E06C480068007800F07F0001285B
:1031200005D10B2C17D1FFF71FFD064613E06648AB
:103130000068007800F07F0002280BD1012C03D139
:10314000FFF7B9FD064606E0032C04D1FFF75EFE4B
:10315000064600E002264EB1E0B2624A12685169AA
:1031600088470646032E01D109250FE00EB1082538
:103170000CE0062500215848006880B2801C574AA0
:1031800042F8101030205349088000BF4E490968AA
:103190000D7270BD2DE9F84F4B4800684578002747
:1031A000BA46062D1BD148480068007800F07F0021
:1031B000002813D1444909688878012803D1494976
:1031C0000968CF690AE0022803D1464909680F6AF5
:1031D00004E0032802D1434909684F6AADE0002D9D
:1031E00067D1394800684088002862D136480068B5
:1031F000C08802285DD1344800680079002858D181
:1032000031480068007800F07F0030B92E4800682F
:10321000808810B9AFF24F678FE02B4800680078C4
:1032200000F07F00012811D12749096848792D490C
:1032300009688A690021904700287ED122480068E9
:10324000807A002879D0AFF27F6776E01E48006868
:10325000007800F07F0002286FD11B480068407999
:1032600000F00F0618480068407900F07009164811
:103270000068407900F0800038B11B4901EB8600FE
:10328000D0F8000C00F0300806E0174901EB86008A
:10329000D0F8000C00F4405814480078B0424CD9E3
:1032A000B9F1000F49D1B8F1000F46D0AFF2E7678E
:1032B00043E0082D1CD104480068007800F07F002E
:1032C000D8BBAFF2DB7738E0300000203C000020B4
:1032D0004000002042000020505C004000600040A0
:1032E0002A0000203400002000500040600100202F
:1032F0000A2D22D1C5480068007800F07F0001281F
:103300001BD1C2480068807AB8B1C04800684088C4
:1033100098B9BE480068007978B9BC480068C08890
:1033200001280AD1B94909684879B94909688A69FF
:103330000021904708B9AFF2F17757B1B348006860
:10334000A0F812A0B148006887610020B8470024A7
:103350000FE0AE4A12685078AD4A1268116988478A
:103360000446032C05D10920A84909680872BDE864
:10337000F88FA6480068008A4FF6FF71884204D192
:103380000920A24909680872F1E7022C03D09F487E
:103390000068008A20B908209C4909680872E6E79D
:1033A0009A480068007800F08000E0B39748006811
:1033B000C088009095480068008A0099884204D926
:1033C000924900980968088223E090480068008AC2
:1033D0008E490968C98888421BDA8C480068008ACF
:1033E0008B49096891F82C10884203DA002089493A
:1033F00008700EE085480068008A8549096891F8E0
:103400002C1090FBF1F201FB120010B90120814950
:1034100008707F48006890F82C107C480068818212
:10342000FFF7D4FD07E0FFE7032078490968087239
:1034300000037949088000BF99E710B5774890F8F4
:103440002C10002000F037FD70480068007A082832
:1034500005D14002704908801020714908806B48EE
:103460000068007A092801D1012010BD0020FCE786
:1034700038B501246B48006880B2001D6A4931F8F4
:10348000100080B201EB4000009060480068007AB4
:10349000092832D0009800785C49096808700098C3
:1034A000401C0090009800785849096848700098BE
:1034B000401C0090009800EB44000090009931F807
:1034C000020B009100F0A0FE504909684880009866
:1034D00000EB44000090009931F8020B009100F0DD
:1034E00093FE4A4909688880009800EB44000090E8
:1034F0000098008845490968C88001204349096847
:10350000087242480068C08810B9FFF7B2FD01E0B8
:10351000FFF740FEFFF791FF38BD30B50146434B42
:103520001A78002014E00306414C04EB9353D3F8BF
:10353000003C48F68F74234048F280042343C4B211
:10354000234304063A4D05EB9454C4F8003C401C58
:103550009042E8D341F08003324C241F236030BDF9
:1035600010B52A480068047A022C01D0042C05D139
:10357000FFF72CFD25480068047A1CE0062C19D1C1
:1035800022480068407805280ED12048006800785D
:1035900000F07F0040B91D490968C878FFF7BDFFFA
:1035A00024490968086A804719490968886880477A
:1035B000082400E00824154909680C72FFF73DFF54
:1035C00010BD10B511480068047A022C01D0042CFB
:1035D00001D1082412E0032C01D0052C05D1FFF7FE
:1035E000A2FC0A480068047A08E0072C05D10849C3
:1035F0000968C8688047082400E00824034909686E
:103600000C72FFF71AFF10BD704700003000002059
:10361000340000202A000020400000206401002027
:1036200042000020505C004000600040600100202B
:10363000005000403C00002010B5084808490860D0
:1036400002200968087207480749086007480849C6
:103650000860054909680868804710BDC802002055
:10366000300000206401002034000020940100207C
:103670003C00002008B50020009022E1C4480088EA
:1036800000F00F00C34908700846007800287CD17C
:10369000C1480068C14908800846008800F0300031
:1036A000BF490880BD48008800F44050BB490880ED
:1036B000B94909684BF6BF7201EA020080F4005074
:1036C00080F0200040F4004141F08001B24A1160D6
:1036D000AF48008800F0100090BB1046006848F624
:1036E0000F71084011460860FFF73AFFAA490968C0
:1036F0004BF6BF7201EA0200A849098801F4805123
:1037000009B180F48050A549098801F4005109B13C
:1037100080F40050A249098801F0100109B180F03D
:1037200010009F49098801F0200109B180F02000B4
:1037300081B241F4004141F08001974A116008BD17
:10374000FFE79548006880B20090BDF8000000F4E3
:103750000060B0B390480068C0F30E0048F68F7167
:1037600008408D490860FFF783FE8B4909684BF6D6
:10377000BF7201EA02008949098801F4805109B148
:1037800080F480508549098800E056E001F400513A
:1037900009B180F400508249098801F0100109B193
:1037A00080F010007E49098801F0200109B180F005
:1037B000200081B241F4004141F08001764A11605D
:1037C000BDE7FFE7BDF8000000F40040002878D016
:1037D00071480068C0F30E0048F68F7108406E49CA
:1037E0000860FFF7EEFE6C4909684BF6BF7201EA0C
:1037F00002006A49098801F4805109B180F48050BF
:103800006649098801F4005109B180F40050644907
:10381000098801F0100109B180F0100060490988A1
:1038200001F0200109B180F0200081B241F4004193
:1038300041F08001584A116081E7564800785949A3
:1038400001EB8000D0F8000C80B20090BDF80000C1
:1038500000F40040C0B14F48007801EB8000D0F880
:10386000000CC0F30E0048F68F71084049490978F2
:103870004C4A02EB8101C1F8000C46490978491E07
:10388000494A52F821008047BDF8000000F080004E
:10389000B8B140480078434901EB8000D0F8000CF3
:1038A00048F60F7108403B4909783E4A02EB810116
:1038B000C1F8000C37490978491E3C4A52F82100EA
:1038C000804735484430006880B23149088000F4B0
:1038D000004000287FF4D2AE00BF30E710B50024CE
:1038E0004AE047F6FF702C494431086028480088B8
:1038F00000F00F002749087008460078294901EBBD
:103900008000D0F8000C84B204F40040C8B1214813
:10391000007801EB8000D0F8000CC0F30E0048F6F0
:103920008F7108401B4909781E4A02EB8101C1F8DA
:10393000000C18490978491E1B4A52F8210080479B
:103940001AE004F08000B8B112480078154901EB84
:103950008000D0F8000C48F60F7108400D49097836
:10396000104A02EB8101C1F8000C0A490978491E8E
:103970000E4A52F82100804707484430006880B260
:103980000349088000F400400028AAD110BD0000BF
:10399000200100202C000020005C0040400000209E
:1039A000420000200050004040010020240100207F
:1039B000F0B5144604F1010C4FEA6C07DFF848C07B
:1039C0000CEB41033D460AE00678401C90F800C02D
:1039D00046EA0C2223F8022B9B1C401C6D1E002D76
:1039E000F2D1F0BDF0B5561C7510074E06EB410440
:1039F0002B4605E034F8047B20F8017B401C5B1E5D
:103A0000002BF7D1F0BD000000600040FA490860CB
:103A10007047F948006880B27047F749091D08608F
:103A20007047F548001D006880B27047F2480830C2
:103A3000006880B27047F0490C3108607047EE486A
:103A40000C30006880B270474FF6F8710140EA4AC6
:103A5000103211607047E8481030006880B270473B
:103A6000E64B03EB8002C2F8001C70470146E34AB4
:103A700002EB8100D0F8000C80B2704710B5DF4B2C
:103A800003EB8002D2F8002C48F68F131A400A4349
:103A9000DA4C04EB8003C3F8002C10BD0146D74A72
:103AA00002EB8100D0F8000C00F4C060704730B524
:103AB000D24C04EB8003D3F8003C48F6BF7403EA11
:103AC000040201F010030BB182F0100201F0200398
:103AD0000BB182F0200242F4004343F08003C74D53
:103AE00005EB8004C4F8003C30BD30B5C34C04EB9A
:103AF0008003D3F8003C4BF68F7403EA040201F410
:103B000080530BB182F4805201F400530BB182F464
:103B1000005242F4004343F08003B84D05EB8004AB
:103B2000C4F8003C30BD30B503460C461846FFF7DC
:103B30009DFF0546012C07D125F48050AF4A02EBCA
:103B40008301C1F8000C08E0022C06D125F010001A
:103B5000AA4A02EB8301C1F8000C30BD0146A74A16
:103B600002EB8100D0F8000C00F0300070470146F5
:103B7000A24A02EB8100D0F8000C00F440507047DC
:103B800010B59E4B03EB8002D2F8002C48F6BF73B1
:103B900002EA030181F0100181F0200141F40042AA
:103BA00042F08002954C04EB8003C3F8002C10BD5A
:103BB00010B5924B03EB8002D2F8002C4BF68F73BA
:103BC00002EA030181F4805181F4005141F4004282
:103BD00042F08002894C04EB8003C3F8002C10BD36
:103BE000864A02EB8001D1F8001C41F4807148F64E
:103BF0008F72114048F280021143804B03EB800228
:103C0000C2F8001C70477D4A02EB8001D1F8001C0D
:103C100048F68F62114048F280021143774B03EB64
:103C20008002C2F8001C7047744A02EB8001D1F890
:103C3000001C48F68F62114048F2800211436F4B1E
:103C400003EB8002C2F8001C70476C4A02EB800153
:103C5000D1F8001C41F4807148F68F72114048F28F
:103C600080021143654B03EB8002C2F8001C7047D1
:103C7000624A02EB8001D1F8001C41F4807148F6E1
:103C80008F72114048F2800211435C4B03EB8002BB
:103C9000C2F8001C7047594A02EB8001D1F8001CA1
:103CA00048F68F62114048F280021143534B03EBF8
:103CB0008002C2F8001C70470146504A02EB8100A6
:103CC000D0F8000C00F03000102801D1012070471E
:103CD0000020FCE70146494A02EB8100D0F8000CC5
:103CE00000F44050B0F5805F01D101207047002002
:103CF000FCE7424A02EB8001D1F8001CC1F30E013F
:103D000048F68F7211403D4B03EB8002C2F8001C55
:103D100070473A4A02EB8001D1F8001C48F60F7256
:103D20001140364B03EB8002C2F8001C7047334A47
:103D300002EB8001D1F8001C48F68F7211404CF262
:103D4000800211432D4B03EB8002C2F8001C704728
:103D50002A4A02EB8001D1F8001C48F68F7211400C
:103D600048F2C0021143254B03EB8002C2F8001C4D
:103D70007047224A02EB8001D1F8001C01F4804117
:103D800071B102EB8001D1F8001C48F68F7211402E
:103D90004CF280021143194B03EB8002C2F8001C65
:103DA0007047164A02EB8001D1F8001C01F0400177
:103DB00071B102EB8001D1F8001C48F68F721140FE
:103DC00048F2C00211430D4B03EB8002C2F8001C05
:103DD000704710B5094B03EB8002D2F8002C48F66F
:103DE0008F731A4048F280031A430A43034C04EBD2
:103DF0008003C3F8002C10BD405C00400050004020
:103E00000146FC4A02EB8100D0F8000C00F00F00E4
:103E1000704710B54A105200F74B1B689BB203EB7A
:103E2000C003F64C44F8132010BD10B54A105300DF
:103E3000F14A126892B202EBC002121DEF4C44F834
:103E4000123010BD0146EC48006880B200EBC100A2
:103E5000EA4A32F8100080B270470146E64800682E
:103E600080B200EBC100001DE44A32F8100080B2BD
:103E70007047E14A126892B202EBC002921CDF4B1B
:103E800043F81210704702463E290BDD481101F03D
:103E90001F030BB9431E98B24FF4004343EA80233B
:103EA000136007E0481001F001030BB1431C98B206
:103EB00083021360704710B50246CF48006880B295
:103EC00000EBC200801DCD4C04EB40033E290BDD0E
:103ED000481101F01F040CB9441EA0B24FF4004475
:103EE00044EA80241C6007E0481001F001040CB192
:103EF000441CA0B284021C6010BD0146BE4800688C
:103F000080B200EBC100801CBC4A32F81000C0F344
:103F1000090070470146B848006880B200EBC10054
:103F2000801DB64A32F81000C0F30900704730B562
:103F30004B105B00B04C2468A4B204EBC004AF4D3E
:103F400045F8143053105C00AB4B1B689BB203EB7D
:103F5000C0031B1D45F8134030BD10B54A10520078
:103F6000A54B1B689BB203EBC003A44C44F8132081
:103F700010BD10B54A1053009F4A126892B202EB6E
:103F8000C002121D9D4C44F8123010BD01469A48E3
:103F9000006880B200EBC100984A32F8100080B28D
:103FA000704701469448006880B200EBC100001DD4
:103FB000924A32F8100080B2704730B50B46012BA0
:103FC0001FD18D49096889B201EBC001891C8B4D55
:103FD00005EB41043E2A0BDD511102F01F050DB91E
:103FE0004D1EA9B24FF4004545EA8125256007E042
:103FF000511002F001050DB14D1CA9B28D022560D2
:104000000AE0022B08D17C49096889B201EBC001A2
:10401000891C7A4C44F81120012B1FD1764909687C
:1040200089B201EBC001891D744D05EB41043E2AA4
:104030000BDD511102F01F050DB94D1EA9B24FF451
:10404000004545EA8125256007E0511002F0010591
:104050000DB14D1CA9B28D0225600AE0022B08D1DA
:104060006549096889B201EBC001891D634C44F8B8
:10407000112030BD30B5034601291FD15E480068CC
:1040800080B200EBC300801C5C4D05EB40043E2A6F
:104090000BDD501102F01F050DB9451EA8B24FF4FB
:1040A000004545EA8025256007E0501002F0010533
:1040B0000DB1451CA8B2850225600AE0022908D18D
:1040C0004D48006880B200EBC300801C4B4C44F8A4
:1040D000102030BD30B5034601291FD14648006885
:1040E00080B200EBC300801D444D05EB40043E2A26
:1040F0000BDD501102F01F050DB9451EA8B24FF49B
:10410000004545EA8025256007E0501002F00105D2
:104110000DB1451CA8B2850225600AE0022908D12C
:104120003548006880B200EBC300801D334C44F872
:10413000102030BD01463048006880B200EBC1005D
:10414000801C2E4A32F81000C0F309007047014667
:104150002948006880B200EBC100801D274A32F870
:104160001000C0F30900704701462348006880B280
:1041700000EBC100801D214A32F8100000F47C40A1
:1041800008B1012070471C48006880B200EBC100F4
:10419000801C1A4A32F81000C0F3090008B102204E
:1041A000F0E70020EEE710B5012910D1114B03EB29
:1041B0008002D2F8002C48F68F731A4048F2C003F0
:1041C0001A430C4C04EB8003C3F8002C11E00229C5
:1041D0000FD1084B03EB8002D2F8002C48F68F7306
:1041E0001A404CF280031A43024C04EB8003C3F8DC
:1041F000002C10BD00500040505C004000600040AA
:10420000024641EA022070470146CAB20B1243EA55
:104210000220704700201D4908604FF404401C49EB
:104220000880084600881949091F08600020704767
:104230002DE9F04104460E46154604F07F00FFF7D5
:1042400001FE0746AAB239463046FFF7B1FBA9B2D4
:1042500004F07F00FFF70DFE0020BDE8F0812DE99E
:10426000F04104460E46002504F07F00FFF752FEA1
:10427000054604F07F00FFF7F0FD07462A46394661
:104280003046FFF7AFFB2846BDE8F081445C0040B4
:104290003A00002010B5002000F09EF810BD10B5C7
:1042A000FFF7F8FF10BD10B50120FCF7DDFF01217D
:1042B000C805FDF786F810BD032042490860704725
:1042C0004148817A19B105213E4A116002E001217D
:1042D0003C4A1160704708B54FF48060FCF712F853
:1042E00014208DF8000000208DF8010001208DF8C9
:1042F00002008DF803006846FCF709F813208DF8DA
:10430000000000208DF8010001208DF802008DF8DA
:1043100003006846FBF7FBFF08BD38B504460121E2
:104320000420FDF741F88020ADF8000003208DF84F
:10433000020014208DF8030069462448FCF7F2FCC3
:1043400024B180212148FCF79CFD03E080211F4817
:10435000FCF795FD38BD30B50B46002100BF16E0D7
:104360000A24B4EB107F05D9302404EB107403F851
:10437000114005E0412404EB10740A3C03F811409D
:10438000000100254C00641C1D554C1CE1B29142FB
:10439000E6DB30BD70B50E480468001D0568001DE1
:1043A0000668344454B108220A492046FFF7D3FF77
:1043B0000422084910312846FFF7CDFF70BD704731
:1043C00070470000F0010020C802002000080140F2
:1043D000E8F7FF1F0601002070B505461DB908F07B
:1043E000BCFD002401E0012400BF00BF204670BDD9
:1043F0002DE9F0410546884617461E4635B9324636
:104400004146384608F02EFD002401E0012400BF9B
:1044100000BF2046BDE8F0812DE9F0410546884601
:1044200017461E4615B1012D08D106E03246414619
:10443000384608F0EFFC002402E001E0012400BF50
:1044400000BF2046BDE8F0812DE9F041054615B1D9
:10445000012D18D116E04FF0007100200D4AC2E97D
:10446000001048130C49086008460668104632469A
:104470000023D0E90071384608F0A0FF0749086022
:10448000002402E001E0012400BF00BF2046BDE897
:10449000F08100004800002050000020540000205F
:1044A00070B504460D4616467648007870B97648D1
:1044B00050F82400684375490860734850F8240098
:1044C00070437349086001206E4908706D48007898
:1044D000012846D16F480068C0B96B4830F8240005
:1044E00083B26D4A694801682046FFF795FF402274
:1044F00069498120FFF79CFE634850F8240040384A
:104500006449086040206549086011E06248634AD8
:104510001268811840228120FFF78AFE5D480068FA
:1045200040385C4908605D48006840305B4908607D
:1045300040210120FFF79DFC30210120FFF7B7FA51
:10454000524800684030514908605148006840387E
:104550004F49086052488068403851498860FFF7E9
:104560002EFF4B48006870B900204A4908604B494B
:1045700008604649086003204A4908700020414904
:104580000870FFF71DFF70BD2DE9F04104460D4690
:1045900016464548006800F140073A48007870B96F
:1045A000394850F82400684340490860364850F8BC
:1045B000240070433E4908600120324908703148A8
:1045C000007801284CD100203A49086010E03948B1
:1045D00001680068401C374A10603748415C2E482B
:1045E000314A1268815430480068401C2E490860E6
:1045F0002D480068B842EAD32C4800682F49098842
:1046000008442A4908602A4800682C490988401A49
:10461000274908601C4850F824000968B1FBF0F2F3
:1046200000FB121080B900201F490860164830F8BE
:10463000240083B2144850F824001C4A1268111A4E
:10464000154A2046FFF7D4FE154880681B490988A3
:10465000401A134988604FF440510220FFF745FA91
:104660001348006818B10F480078042808D10020CA
:104670000D490860012100F023F80020014908706D
:10468000BDE8F0816C000020500000207000002088
:10469000740000205C000020E40200206000002084
:1046A00044130020F800002064000020780000205F
:1046B0007C00002068000020E4120020FA000020A6
:1046C00070B505460C46F948F94908600846057377
:1046D0000D228120FFF7ACFD0520F64908702CB1B2
:1046E0000420087030210120FFF7E1F970BD10B5FA
:1046F000F0480078022810D003281DD0042802D0EA
:10470000052823D100E000BF0020EA4908704FF4DB
:1047100040510220FFF7E9F919E0E748C07B28285B
:1047200008D1E549487BE5490A68E549096800F090
:10473000F8FC00BF00BF0AE001210020FFF7C0FF26
:104740004FF440510220FFF7D0F900E000BF00BF56
:1047500010BD10B5044624B1012C07D0022C15D190
:104760000AE010210120FFF7A2F910E04FF4805178
:104770000220FFF7BAF90AE010210120FFF797F9AC
:104780004FF480510220FFF7B0F900E000BF00BFF6
:1047900010BD10B5002404E0CA48005DC6490855A4
:1047A000641CC94800888442F6D3C3484068C049A5
:1047B0004860C14880688860C34800881F280FD0BF
:1047C0000220FFF7C6FF0020BB490860487B1A2281
:1047D000052100F0BEFB00210120FFF771FF10BD95
:1047E000B548C07B282803D0B348C07B2A2816D1FF
:1047F000B148407C0106B048807C41EA0041AE48A7
:10480000C07C41EA0020AC49097D0843AC490860FE
:10481000A948C17D807D41EA0020A8490860A648DA
:104820000068AA4988426FD1A348407BA84909681B
:10483000884207D8A048807B012803DB9E48807B04
:1048400010280DDD0220FFF784FF9B49487B2422BE
:10485000052100F07EFB00210120FFF731FFE8E099
:104860009548C07B25285FD01BDC15286FD00EDC57
:1048700008286DD006DC00285BD0032830D004283F
:1048800067D176E00A286ED01228F9D12DE01A38C7
:104890000A285ED2DFE800F0392EB17D33B1B1B124
:1048A000B1438A286FD00EDC552867D006DC282853
:1048B00044D02A284ED02F28E2D155E05A2829D0BA
:1048C0008828DDD176E0A8286DD004DC8F286FD051
:1048D0009E28D5D173E0AA287BD0AF28D0D182E022
:1048E0007549487B00F0C8FB95E07349487B00F0B0
:1048F00015FB90E07049487B00F0CDFB8BE06E49E2
:10490000487B00F0C8FB86E086E06B49487B00F0FE
:10491000A5FB80E06849487B00F0A7FB7BE0664987
:10492000487B00F01AFB76E06349487B00F051FBBE
:1049300071E06149487B00F097FC6CE05E49487B80
:104940005E490A685E49096800F0EBFB63E01BE022
:1049500024E052E05849487B58490A685849096898
:1049600000F016FC57E02FE05349487B00F047FC6D
:1049700051E05149487B00F091FC4CE04E49487BA6
:1049800000F0A2FC47E029E04B49487B00F09CFC8A
:1049900041E04949487B00F097FC3CE04649487BB0
:1049A00000F092FC37E04449487B00F08DFC32E097
:1049B0001EE00EE04049487B00F086FC2BE03E49BB
:1049C000487B00F081FC26E03B49487B00F07CFC02
:1049D00021E03949487B00F077FC1CE03649487BF0
:1049E00000F072FC17E03449487B00F06DFC12E0E7
:1049F0003149487B00F068FC0DE00220FFF7A9FE7A
:104A00002D49487B2022052100F0A3FA0021012036
:104A1000FFF756FE00BF0CE00220FFF79AFE264982
:104A2000487B2022052100F094FA00210120FFF7A5
:104A300047FE00BFD3E610B51F48C47B21490220C2
:104A4000FFF70DFC204908801A48007810B10128B2
:104A50001CD102E0FFF79DFE26E02A2C08D1164962
:104A6000487B16490A681649096800F091FB1BE06B
:104A70000120FFF76EFE1049487B2422052100F03B
:104A800068FA00210220FFF71BFE0DE00220FFF76D
:104A900060FE0949487B2422052100F05AFA0021D2
:104AA0000220FFF70DFE00BF00BF10BD555342535B
:104AB00044130020F80000202413002000010020EF
:104AC000FC000020E4120020FA000020555342436D
:104AD0005C01002070B505460C462246294681201F
:104AE000FFF7A6FB30210120FEF7E1FF0320054977
:104AF000087005488068001B03498860002008731F
:104B000070BD0000F80000204413002010B5FFF72E
:104B1000EEFD10BD10B5FFF78EFF10BD10B50F48AC
:104B200000680F4908800846008800F400400D49DD
:104B30000988084008B1FEF79DFD0948008800F487
:104B4000806008490988084030B14FF6FF300349BA
:104B5000086005494868804710BD0000445C00407B
:104B6000200100203A0000206401002010B5FFF76A
:104B700011FC00208B490968887200F02BF9FFF7BF
:104B800049FB00208849086010BD10B50020874906
:104B900088728748C0798349096848720020FEF707
:104BA00053FF4FF400710020FEF768FF2021002022
:104BB000FEF77DFF18210020FFF737F97D4890F8B8
:104BC0002C100020FFF777F958210020FFF721F97A
:104BD0000020FFF729F80020FEF7EAFF002101205E
:104BE000FEF74CFF98210120FFF713F92021012047
:104BF000FEF75DFF00210120FEF777FF0021022074
:104C0000FEF73CFFD8210220FFF70FF9694890F822
:104C10002C100220FFF74FF94FF440510220FEF70D
:104C200064FF00210220FEF742FF624890F82C103A
:104C30000020FFF740F90020FEF7BAFF0020FEF742
:104C40006CFC0120584908605B485C490860002002
:104C50005B49087010BD10B552480068807A58B1A1
:104C60000520514908600120FFF79BF80220FFF75B
:104C700080F800205249087010BD10B54F480068F8
:104C80004D49884202D00220FFF763FD10BD042089
:104C900045490860704770477047014629B90120AF
:104CA000404A12681082002070474648FCE770B501
:104CB000054600243B480068007800F07F0021286A
:104CC00011D1FE2D0FD137480068408858B93548BA
:104CD0000068808838B933480068C088012802D14C
:104CE000AFF2490401E0022070BD0CB90220FBE7DD
:104CF0002C480068846100212A4800684182002015
:104D0000A0470020F0E710B5044626480068007868
:104D100000F07F0021281AD1FF2C18D1214800680B
:104D20004088A0B91F480068808880B91D48006885
:104D3000C08860B90120FFF734F80220FFF719F8A6
:104D40001D481E49086000201D49087010BD022042
:104D5000FCE70246002901DD02207047002A01DD40
:104D60000220FAE70020F8E710B50446164920466D
:104D7000FEF7C9F810BD10B5044614492046FEF7E9
:104D8000C2F810BD70B5054606480068C478052C09
:104D900001DD002070BD0E4800EBC4012846FEF77F
:104DA000B2F8F7E730000020F0010020C802002030
:104DB000DEE700086401002055534243241300201D
:104DC000F80000205C010020B8010020C001002094
:104DD000C801002010B50120FFF79FFA01244C48BC
:104DE000046000204B490880084600884849086054
:104DF0000020091D08604FF4E0504649088008462D
:104E0000008843490860002010BD10B501204049CA
:104E100008600020091D0860FFF77FFA03203C4965
:104E20000860002010BD10B53948006884B244F015
:104E3000080437480460006884B244F0040434482D
:104E40000460FFF739FA10BD10B53148006884B22C
:104E500024F004042E480460FFF732FA4FF40440B3
:104E60002B49086010BD70B50546072D01D02A48B2
:104E7000057029480078082841D2DFE800F0040ACC
:104E80001016212E4142FFF7DFFF0620224908704D
:104E90003BE0FFF7D9FF04201F49087035E00220EE
:104EA0001D494870032008702FE01B484078401EC1
:104EB000194948700846407808B90420087024E071
:104EC0001348006884B244F01004114804600520BF
:104ED000114908700A20487017E00F484078401EBA
:104EE0000D4948700846407840B90948006884B2C6
:104EF00024F01004064804600620087005E000BF96
:104F000000BF06200449087000BF00BF70BD00004C
:104F1000405C00403A000020F501002070B50646D4
:104F2000F948007C00F0010010B1F84C05250BE0B9
:104F30000EB9F74C00E0F74CF348C07C242802DCA3
:104F4000F148C57C00E0242529462046FFF7C2FD34
:104F500070BDF14B99701A73704710B50446204626
:104F6000FFF772FA68B1E849487B3A220221FFF75D
:104F7000F0FF01210846FFF7A3FB0020FFF7E9FB44
:104F800010BDE64850F82400000EE5490871E348DA
:104F900050F82400000C4871E04830F82400000A62
:104FA0008871DE4810F82400C871DE4850F82400EB
:104FB000000C4872DB4830F82400000A8872D94897
:104FC00010F82400C8720C21D548FFF783FD00BFFC
:104FD000D6E710B504462046FFF736FA68B1CA494D
:104FE000487B3A220221FFF7B4FF01210846FFF770
:104FF00067FB0020FFF7ADFB10BDC84850F8240048
:10500000401E000EC8490870C44850F82400401ED5
:10501000000C4870C14830F82400401E000A887017
:10502000BE4810F82400401EC870BE4850F8240046
:10503000000E0871BB4850F82400000C4871B948B4
:1050400030F82400000A8871B64810F82400C871AE
:105050000821B548FFF73EFD00BFCDE710B5044677
:105060000421B248FFF736FD10BD10B504460821F3
:10507000AF48FFF72FFD10BD70B50546A248C07CB4
:10508000122802DCA048C47C00E012242146A24879
:10509000FFF720FD70BD10B5044601210020FFF789
:1050A0000FFB10BD2DE9F04104460D4617461E4684
:1050B000B8199A4951F82410884213D92A2D02D1DF
:1050C0000220FFF746FB0020FFF743FB21220521CA
:1050D0002046FFF73EFF00210120FFF7F1FA0020F4
:1050E000BDE8F081884881688E4850F824007043FC
:1050F000814214D02A2D03D10220FFF72AFB02E0BF
:105100000020FFF726FB8049487B24220521FFF77A
:1051100020FF00210120FFF7D3FA0020E0E7012063
:10512000DEE770B506460C4615468248007820BB7F
:105130007549487B2B4622462821FFF7B3FF00B96B
:1051400070BD7148007B00F0800040B102207949B9
:1051500008702A4621463046FFF7A2F90CE00220EB
:10516000FFF7F7FA6849487B24220521FFF7F1FE93
:1051700001210846FFF7A4FAE2E76E48007802280A
:1051800004D12A4621463046FFF78AF900BFD7E707
:1051900070B506460C4615466648007820BB5A494D
:1051A000487B2B4622462A21FFF77CFF00B970BDC1
:1051B0005548007B00F0800040B901205D4908702F
:1051C0004FF440510220FEF790FC0CE00020FFF766
:1051D000C0FA4D49487B24220521FFF7BAFE002181
:1051E0000120FFF76DFAE2E752480078012804D168
:1051F0002A4621463046FFF7C7F900BFD7E710B56A
:1052000004464148806848B93F48007C00F00400EB
:1052100020B901210020FFF753FA0CE00220FFF72C
:1052200098FA3949487B24220521FFF792FE002194
:105230000120FFF745FA10BD10B5044632488068DA
:1052400068B10220FFF785FA2F49487B202205210B
:10525000FFF77FFE00210120FFF732FA03E0012172
:105260000020FFF72DFA10BD10B504462046FFF7C9
:10527000EBF868B12449487B3A220221FFF769FE26
:1052800001210846FFF71CFA0020FFF762FA10BD63
:1052900001210020FFF714FA00BFF8E710B504461B
:1052A0002046FFF7D1F868B11749487B3A2202211E
:1052B000FFF74FFE01210846FFF702FA0020FFF733
:1052C00048FA10BD00BFFCE710B504460E488068E0
:1052D00018B90020FFF73DFA0BE00B48007B00F007
:1052E000800018B10020FFF734FA02E00220FFF737
:1052F00030FA0549487B20220521FFF72AFE0021CC
:105300000120FFF7DDF910BD2413002080000020EC
:1053100085000020A4000020CF00002054000020C1
:10532000E900002050000020E1000020C300002020
:10533000C7000020F800002070B505460C4645F275
:105340005550FBF73DFE2846FBF73DFE2046FBF798
:105350003DFEFBF73EFEFBF741FE70BD10B5FBF7CF
:1053600038FE10BD10B507F04DF903F057FF6C483B
:1053700004F058F806F02AF906F0A2F807F0B6FE95
:1053800004F07CF8674804F0BAF907F0E6FD10B1C4
:10539000022063498870FEF782FFFEF784FFFEF764
:1053A0009AFFFEF749F906F0D2FA07F040F841F209
:1053B000BF2140F2F31006F047FE07F0FEF907F0B8
:1053C00085F928B102205649087157A008F040FD20
:1053D00006F093FC07F0B2FF07F0DEFF28B10220D1
:1053E0004F49487154A008F033FD07F09BFE00BF01
:1053F00020215748FBF743FD00BF5648007850B9BD
:105400000120474948725449454805F011FC53A012
:1054100008F01EFD05E000204149487258A008F040
:1054200017FD01203E4948700820494914310860A1
:105430005CA008F00DFD10BD0025FFF793FF6B1E6B
:10544000012211466FF00C0005F0DAFC604800788C
:1054500010B100205E49087061E05D4800780028C6
:105460003AD03C480078002836D15AA008F0F0FC29
:105470005F480078E8B101231A460021881E05F034
:10548000BFFC5B48183002F09BFB04463CB1594816
:1054900008F0DEFC08202E491431086009E0564867
:1054A00008F0D6FC00205249087008202849103125
:1054B000086001210807FBF784FF01210846FBF77C
:1054C000BDFDFAF79EFE0020414908704B48016877
:1054D0004BA008F0BDFC0125544803F00AFF10481A
:1054E00006F0FAF807F01EFE07F03BFE0C4807F046
:1054F00081FE35B100256B1E01221146101F05F0FB
:105500007FFC4B49064805F0F2FF04F014FA4948C5
:1055100005F0FCFB024A4849484807F0EDFA9CE7D1
:10552000B6130020C01300204144584C33343520BA
:105530004552524F52A3A1004248313735302049DD
:10554000494320CDA8D0C5CAA7B0DCA3A100000064
:10555000000C0140BC020020F01300205573625F74
:105560005374617465203D20646973436F6E6E658A
:10557000637420A3ACC4A3BFE9D4CBD0D0A3A10053
:105580005573625F5374617465203D20436F6E6E86
:1055900065637420A3ACC4A3BFE9B2BBD4CBD0D0A5
:1055A000A3A100000A0A0A20BFAABBFA3D3D3D3D67
:1055B0003D3E3E3E3E3E2020B3F5CABCBBAFCDEAE9
:1055C000B3C920203C3C3C3C3C200A0A0A000000B5
:1055D000F70100200A0A206D61696E202D2D2D3EF5
:1055E000202073746F70206D6F6465200A0A0000BC
:1055F00030240020D4EB000884EB00080C020020CB
:105600000A0A206F7574206F662073746F70206DA6
:105610006F646521206E6F772054696D65446973EE
:10562000706C6179203D2025640A0A0084130020F3
:1056300053B5000814020020AC020020A002002094
:1056400010B557A008F004FC10BD02E059A008F006
:10565000FFFBFBE702E05EA008F0FAFBFBE702E0DD
:1056600062A008F0F5FBFBE702E066A008F0F0FBA3
:10567000FBE710B56AA008F0EBFB10BD10B56DA0FC
:1056800008F0E6FB10BD10B570A008F0E1FB10BDFE
:1056900010B5FFF743FA10BD10B5FEF71FF910BDA6
:1056A00010B50120FBF76EFF50B10120FBF77AFF28
:1056B00001206C490860801E6B490860FBF734FFCD
:1056C00010BD10B540F225516848FDF7C9F958B131
:1056D0006748FDF745F9C1B2664842784078401CFA
:1056E000644B58706448815462484078322802DB29
:1056F00000206049487040F225515D48FDF7DAF915
:1057000010BD10B51020FBF793FA40B15BA008F074
:105710009FFB0020614908701020FBF79AFA10BD2A
:1057200010B54FF40070FBF783FA48B15CA008F0A5
:105730008FFB0020594908704FF40070FBF789FA7D
:105740004FF48070FBF774FA48B161A008F080FB59
:105750000020524908704FF48070FBF77AFA10BDB0
:1057600010B501210807FBF72CFE03210020FBF7F1
:1057700065FC10BD10B54FF48060FBF759FA28B1F5
:105780000120464908708002FBF763FA4FF400607D
:10579000FBF74EFA18B14FF40060FBF75AFA10BD50
:1057A0004E4D495F48616E646C657220B1A8B4EDDE
:1057B0000D0A000048617264204661756C745F4890
:1057C000616E646C657220B1A8B4ED0D0A00000032
:1057D0004D656D4D616E6167655F48616E646C65B6
:1057E0007220B1A8B4ED0D0A0000000042757346A6
:1057F00061756C745F48616E646C657220B1A8B4A9
:10580000ED0D0A0055736167654661756C745F48FC
:10581000616E646C657220B1A8B4ED0D0A000000E1
:105820005356435F48616E646C657220B1A8B4ED55
:105830000D0A000044656275674D6F6E5F48616ECA
:10584000646C657220B1A8B4ED0D0A0050656E64F9
:1058500053565F48616E646C657220B1A8B4ED0D5B
:105860000A0000000C02002010020020004400404A
:105870000038014004020020841300200A0A204559
:10588000585449345F49525148616E646C657220C6
:10589000CDE2B2BFD6D0B6CF200A0A00F701002071
:1058A0000A0A2045585449395F355F4952514861C9
:1058B0006E646C657220CDE2B2BFD6D0B6CF204503
:1058C0005854495F4C696E6539200A0A000000008F
:1058D0000A0A2045585449395F355F495251486199
:1058E0006E646C657220CDE2B2BFD6D0B6CF2045D3
:1058F0005854495F4C696E6538200A0A0000000060
:1059000010B504461CB907F028FB002010BD01208B
:10591000FCE7014611B90022104670470120FCE760
:105920002DE9F04107460D4616461C469FB914B9AD
:105930000420BDE8F0810AE031034FF4805228468C
:1059400007F068FA761C05F58055601EC4B2002C7D
:10595000F2DC0020EDE70120EBE72DE9F0410746FE
:105960000D4616461C469FB914B90420BDE8F081C7
:105970000AE031034FF48052284607F073FA761C90
:1059800005F58055601EC4B2002CF2DC0020EDE766
:105990000120EBE710B503460C46EBB934B1012CFE
:1059A00010D0022C04D0032C11D106E0002110E00D
:1059B0004FF48050108000210BE04FF480301060D5
:1059C000002106E0134800681060002101E0042176
:1059D00000BF00BF084610BD012100BFFBE700204B
:1059E0000D498968A1F2BC7149060B4A127941EA56
:1059F0004251094AD27841EA0241074A927841EA83
:105A0000C221054A527841EA4211034A12781143F1
:105A100008437047F8010020C01300200246802A86
:105A200000DA1046704730B5B0F5805F01DA254DD9
:105A300000E0254D294600BF31F8022B0AB1904203
:105A400000DA3CE031F8023B1C12DBB2D51885428B
:105A500030DD092C2CD2DFE804F005090F13171BE9
:105A60001F232700851A31F8150021E0851A05F05B
:105A70000105451BA8B21BE0A0F11005A8B217E074
:105A8000A0F12005A8B213E0A0F13005A8B20FE004
:105A9000A0F11A05A8B20BE000F10805A8B207E0D2
:105AA000A0F15005A8B203E0A0F5E355A8B200BFED
:105AB00000BF04E0002CBFD101EB4301BCE700BFF5
:105AC00030BD00005EE8000850EA00080146487852
:105AD0000A7842EA002070470146C8788A7842EA8C
